:020000040800F2
:100000001809002001010008011B0008F91A000866
:10001000FD1A0008C5010008FD1F000800000000CF
:10002000000000000000000000000000F11F0008B8
:10003000C901000800000000051B0008F51F0008AA
:100040001B0100081B0100081B0100081B01000820
:100050001B0100081B0100081B0100081B01000810
:100060001B0100081B0100081B0100081B01000800
:100070001B0100081B0100081B0100081B010008F0
:100080001B0100081B0100081B0100081B010008E0
:100090001B0100081B0100081B0100081B010008D0
:1000A0001B0100081B0100081B0100081B010008C0
:1000B0001B0100081B0100081B0100081B010008B0
:1000C0001B0100081B0100081B0100081B010008A0
:1000D0001B0100081B0100081B0100081B01000890
:1000E0001B0100081B0100081B010008DFF80CD0F1
:1000F00000F056F8004800470120000818090020C9
:100100000648804706480047FEE7FEE7FEE7FEE7B1
:10011000FEE7FEE7FEE7FEE7FEE7FEE7F91F000861
:10012000ED00000840EA01039B0703D009E008C97D
:10013000121F08C0042AFAD203E011F8013B00F8AC
:10014000013B521EF9D27047D2B201E000F8012BF8
:10015000491EFBD270470022F6E710B513460A4647
:1001600004461946FFF7F0FF204610BD00F000429C
:1001700020F00040C10DC0F3160040F400007F29BC
:1001800001DA00207047962903DCC1F19601C840CE
:1001900001E096398840002AF4D0404270470000C0
:1001A000064C074D06E0E06840F0010394E80700C4
:1001B00098471034AC42F6D3FFF79CFF1C3A000876
:1001C0003C3A0008FEE7000070470000B0B5044666
:1001D00000F01EF9054640F20000C2F2000000786F
:1001E000611C18BF044400BF00F012F9401BA0427C
:1001F000FAD3B0BD2DE9F04F82B00E68002E00F0AA
:10020000038140F20C4C41F200424FF6FF7EC4F2F3
:10021000010CC4F20102042700240123C1F2100ED4
:100220004FF0000A4FF00009904208BF03270097E3
:1002300045E000BF012704F00C030F229A402BEA8F
:10024000020207FA03F34FEA9A051A4346F82520FB
:10025000D1F804B040F20045C4F201055FEACB32A8
:100260002A6854BF22EA080242EA08022A606A6841
:100270005FEA8B3354BF22EA080242EA08026A604E
:100280005FEACB23AA6854BF22EA080242EA0802C6
:100290005FEA8B23AA60DCF800204FF0010354BF13
:1002A00022EA080242EA0802CCF800200E680AF1AD
:1002B000010A36FA0AF204F1040400F0A58003FAF8
:1002C0000AF816EA080FF1D04E68764512DC122EB5
:1002D00056D8DFE806F0350B454955555555555567
:1002E000555555555555554D510000BFD1F80C90F9
:1002F00046E000BF4FF6FF72C1F2210296420FDCCA
:100300000022C1F2110296421AD00022C1F212025A
:10031000964215D00022C1F22102964210D02FE061
:100320000022C1F2220296420AD00022C1F231021A
:10033000964205D00022C1F23202964220D100BF7F
:100340008A684AB1012A14BFC0F81480C0F810802E
:100350004FF0080914E000BF4FF0040910E000BF9F
:10036000CA6802F108090BE04FF0000908E000BF7D
:10037000CA6802F1040903E0CA6802F10C0900BF6F
:1003800022460646BAF1080F24BF203A04363768E1
:100390000F25954027EA050509FA02F22A43326043
:1003A000CA79D2067FF582AF41F21803C4F2020384
:1003B0001A6842F001021A601A6802F00102019202
:1003C000019A40F20042C4F20102A2F57E762AF0C0
:1003D000030256F802B040F60002C4F20102904255
:1003E00010D040F60042C4F2010290423FF422AF26
:1003F00041F20002C4F20102009F904208BF0227AE
:1004000019E700BF002716E702B0BDE8F08F000033
:1004100040F21450C2F200000068704770B5B8B3E3
:10042000044690F83D0028B9002084F83C0020469E
:1004300000F070FF242084F83D002068016821F05E
:1004400001010160016841F400410160016821F48B
:100450000041016001F04CF948F28041C0F21E01F8
:1004600040F60013D4F804E088424FF00001C0F2D7
:100470003D0348F2A16C4FF0000238BF01219842C1
:10048000C0F2010C38BF0122E64538BF0A460AB166
:10049000012070BD4DF68361C4F21B31A0FB011237
:1004A0002168950C4B684FF4967623F03F0343EA9E
:1004B0009243754344F6D3564B60C1F262060B6A11
:1004C000A5FB0656B50923F03F03E64538BF950C5A
:1004D0006A1C1A430A62CA6948F2A0664CF6FF73A6
:1004E000C0F20106B64522EA03020BD801384FEAF2
:1004F0004E03B0FBF3F001306FF31F30042898BFB8
:1005000004201EE0A368013863B119230EFB03F336
:10051000B0FBF3F001306FF31F3078B100F580408D
:1005200008E000BF0EEB4E03B0FBF3F001306FF3B9
:100530001F3028B100F5004003E000BF012000E0BB
:1005400001201043C8610868D4E9072320F0C000E7
:10055000104318430860886848F2FF3204F10C0623
:1005600090434CCE18431043A5698860C86820F0BA
:10057000FF0030432843C860086840F0010008606D
:1005800000202021206484F83D10206384F83E0080
:1005900070BD00002DE9F04F81B01D4690460E461B
:1005A0000446FFF735FF94F83D10202918D107467F
:1005B0002168886980070FD5FFF72AFFC01B19281B
:1005C000F6D900202021206384F83D1084F83E00F5
:1005D000216C0225C1E000BF94F83C00012805D140
:1005E0000225284601B0BDE8F08F00BF012084F845
:1005F0003C000868C00703D1086840F001000860AB
:10060000086806F0FE0920F400600860242084F8E1
:100610003D00002020640020CFF6FF70012605F188
:10062000010A4FF0A00BE062B8F1020F98BF4FF043
:100630000208086840F4807008604869C0070FD15C
:10064000BAF1000F56D0002D00F09C80FFF7E0FEBD
:10065000C01BA84200F2988021684869C007F5D005
:10066000C1F81090FFF7D4FE21684B694A6994F8ED
:100670003D70A02F07461ED013F0020008BF12F4F1
:10068000806018D1FFF7C4FE35B1C01BA84288BFF7
:1006900084F83DB002E000BF84F83DB021684A69AB
:1006A000486994F83D30A02B05D012F0020208BF33
:1006B00010F48060E6D0202084F83D0048690A6884
:1006C000800742F400720A6022D46FF480604861AF
:1006D0008869800709D500BFFFF79AFEC01B19285B
:1006E00032D8216888698007F6D401364645A0D102
:1006F0003CE000BF4869C007B2D14869C00704BFE9
:1007000048695FEAC070ABD14869C007F2D0A7E77B
:1007100000250095486900908869009000988869D4
:10072000800708D5FFF774FEC01B19280CD8206875
:1007300080698007F6D4202084F83D0084F83C507E
:10074000284601B0BDE8F08F00202021206384F806
:100750003D1084F83E00216C012541F02001216408
:1007600084F83C00284601B0BDE8F08F202084F8D2
:100770003D000020012584F83C00284601B0BDE87A
:10078000F08F00BFFFF744FE00202021206384F893
:100790003D1084F83E00216C032541F020012164C6
:1007A000216884F83C000868C00544BF4FF400701D
:1007B0002064284601B0BDE8F08F00002DE9F04725
:1007C00082B0044600201F46164688460090FFF778
:1007D0001FFE94F83D1020291CD105462068816930
:1007E000890713D5FFF714FE401B1928F6D90020FE
:1007F0002021206384F83D1084F83E00216C41F0F4
:100800002001216484F83C0004E000BF94F83C100F
:10081000012903D1022002B0BDE8F087012184F84C
:100820003C100168C90703D1016841F00101016072
:10083000016821F400610160222184F83D1010213B
:1008400084F83E100021216466626785618D2185F0
:100850000021CFF6FF71E162E16A026811F5803F85
:1008600042F48062026018BF012919D1016841F485
:100870008071016041690A9EC90724D1711C18D09A
:10088000002E00F0CB8000BFFFF7C2FD401BB0423E
:1008900000F2C68020684169C907F5D013E000BFA7
:1008A0000829E3D0216B1129E0D0E3E74169C907AA
:1008B00009D14169C90706D14169C90704BF416926
:1008C0005FEAC171F2D02169B1F5804F08D148F0DB
:1008D0000101C9B201614169890740F1CC8003E19E
:1008E000062101EAD81707F1F00101614169090702
:1008F00038D44169721C01F4806113D0002940F0A2
:10090000EA80002E00F06A82FFF782FD401BB042B1
:1009100000F2668220684169090723D441694905CC
:10092000F2D5D8E0002940F0D6804169090719D4F2
:100930004169490500F1CF804169090712D4416935
:10094000490500F1C880416909070BD4416949058F
:1009500000F1C1804169090704D441694905E4D522
:10096000B9E000BF5FFA88F101614169890739D4B4
:100970004169721C01F4806114D0002940F0AB8001
:10098000002E00F02B82FFF743FD401BB04200F227
:10099000278220684169890724D441694905F2D535
:1009A00099E000BF002940F096804169890719D479
:1009B0004169490500F18F804169890712D4416975
:1009C000490500F18880416989070BD441694905CF
:1009D00000F181804169890704D441694905E4D562
:1009E00079E000BF00210191416901918169019184
:1009F0000199016841F4807101604169C90734D1EE
:100A0000711C28D056B1FFF703FD401BB04207D838
:100A100020684169C907F6D027E000BFFFF7F8FC5E
:100A200000202021206384F83D1084F83E00216CD2
:100A300041F020012164216884F83C000868C00569
:100A400044BF4FF400702064012002B0BDE8F0877D
:100A50004169C90709D14169C90706D14169C90777
:100A600004BF41695FEAC171F2D047F0F101016151
:100A70004169890738D44169721C01F4806111D041
:100A800049BB002E00F0AA81FFF7C2FC401BB04218
:100A900000F2A68120684169890725D4416949058A
:100AA000F2D518E0B9B9416989071DD441694905F2
:100AB00011D44169890717D4416949050BD44169AB
:100AC000890711D44169490505D4416989070BD4C7
:100AD00041694905E7D5016841F4007101606FF48F
:100AE0008061416104207CE1218D022910D001291F
:100AF00024D0002938D100210191416901918169F7
:100B000001910199016841F40071016037E000BF73
:100B1000016841F400610160EFF3108072B60020BB
:100B200001902068416901918169019101990168F1
:100B300021F48061016062B621E000BF016821F408
:100B400080610160EFF3108072B600200190206890
:100B500041690191816901910199016841F4007134
:100B6000016062B60BE000BF016841F48061016082
:100B70000021019141690191806901900198208DC6
:100B8000002800F01F8140F218084BF28959771CA9
:100B9000C2F20008C1F2F8494FF0230A80B20328DC
:100BA00018D8022840D0012868D1002E00F0D68045
:100BB0002068014651F8142F520600F1D3800868CE
:100BC000C00600F14381FFF723FC401BB042EFD980
:100BD00031E100BF86B100BF2068014651F8142FF3
:100BE00052060ED40868C00600F13081FFF710FCF1
:100BF000401BB042F0D91EE120684169490640F12E
:100C000013810069616A0870606A2268411C208D46
:100C1000616201382085638D013B638553695B0701
:100C200040F1AC8010699FE02068416949070FD40A
:100C3000002F00F0A780002E00F01C81FFF7E8FBDA
:100C4000401BB04200F21881206840694007F5D58A
:100C5000EFF3108072B62068616A026842F4007295
:100C6000026000690870606A218D01306062481E70
:100C70002085608D0138608562B66AE02068416930
:100C800049070FD4002F00F08D80002E00F0F28075
:100C9000FFF7BEFB401BB04200F2EE8020684169C6
:100CA0004907F5D5016821F480610160EFF31080F8
:100CB00072B62068616A00690870606A218D01302F
:100CC000013960622185618D01396185D8F8001094
:100CD000C908A1FB0912110A01FB0AF10091009950
:100CE000013900910099002900F08C8021684A693F
:100CF00052071ED40099013900910099002900F093
:100D0000818021684A69520713D400990139009102
:100D10000099002976D021684A69520709D40099C0
:100D200001390091009900296CD021684A69520765
:100D3000D5D50A6842F400720A6009690170606AD8
:100D4000218D01306062481E2085608D01386085EC
:100D500062B62068616A006906E000BF20684169E8
:100D6000490661D50069616A0870606A218D0130A9
:100D70006062481E2085618D0139618501047FF420
:100D80000DAF1FE0416949073FF562AF416949076F
:100D90005CBF41695FEA41713FF55AAF416949075C
:100DA000F0D555E7416949073FF57CAF41694907EF
:100DB0005CBF41695FEA41713FF574AF4169490722
:100DC000F0D56FE7202084F83D00002084F83E0035
:100DD00084F83C0002B0BDE8F08700BFFFF718FBC5
:100DE000202000212022216384F83D2084F83E1039
:100DF000226C1043206484F83C10012002B0BDE84E
:100E0000F08700BF00202021206384F83D1084F883
:100E10003E00216C41F02001216462B684F83C0060
:100E2000012002B0BDE8F08750F8141FC906014642
:100E30000CD4FFF7EDFA00202021206384F83D1048
:100E400084F83E00206C40F020000AE06FF01000B3
:100E5000086000202021206384F83D1084F83E00C3
:100E6000206C2064002084F83C00012002B0BDE822
:100E7000F08700BFFFF7CCFA00202021206384F820
:100E80003D1084F83E00216C41F02001216484F87B
:100E90003C00012002B0BDE8F08700002DE9F043DE
:100EA00081B01F46164688460446FFF7B1FA94F80B
:100EB0003D10202920D1054620688169890717D572
:100EC000FFF7A6FA401B1928F6D90020202120633D
:100ED00084F83D1084F83E00216C022641F0200188
:100EE000216484F83C00304601B0BDE8F08300BFC7
:100EF00094F83C10012905D10226304601B0BDE826
:100F0000F08300BF012184F83C100168C90703D1B8
:100F1000016841F001010160016821F40061016094
:100F2000212184F83D10102184F83E100021216415
:100F300066626785618D21850021CFF6FF71E162D0
:100F4000E16A11F5803F18BF012919D1016841F408
:100F5000807101604169DDF82090C90723D119F142
:100F6000010116D0B9F1000F46D000BFFFF750FACB
:100F7000401B484542D820684169C907F6D012E0B5
:100F80000829E3D0216B1229E0D0E3E74169C907C2
:100F900009D14169C90706D14169C90704BF41693F
:100FA0005FEAC171F2D02169B1F5804F02D1FE2113
:100FB00061E000BF062101EAD811F0310161416909
:100FC000090757D4416919F1010201F480612FD05A
:100FD000002946D1B9F1000F00F04281FFF718FA5D
:100FE000401B484500F23E8120684169090741D411
:100FF00041694905F2D534E0FFF70AFA00202021C3
:10100000206384F83D1084F83E00216C012641F0F5
:1010100020012164216884F83C000868C00544BFB1
:101020004FF400702064304601B0BDE8F08300BF8B
:10103000B9B9416909071DD44169490511D441690C
:10104000090717D4416949050BD44169090711D42F
:101050004169490505D4416909070BD4416949052E
:10106000E7D5016841F4007101606FF4806141616E
:101070000420F8E0FF2101EA0801016141698907C4
:101080003AD4416919F1010201F4806112D051BBD7
:10109000B9F1000F00F0E080FFF7BAF9401B4845B6
:1010A00000F2DC8020684169890725D4416949053F
:1010B000F2D518E0B9B9416989071DD441694905DC
:1010C00011D44169890717D4416949050BD4416995
:1010D000890711D44169490505D4416989070BD4B1
:1010E00041694905E7D5016841F4007101606FF479
:1010F000806141610420B6E00026009641690091BC
:10110000816900910099218D002900F0958009F1F5
:101110000108014651F8142F120635D4B8F1000F1A
:1011200016D0B9F1000F00F0AF8000BF086840058D
:1011300000F1B280FFF76CF9401B484500F2A9802E
:101140002068014651F8142F1206EFD51CE000BFAD
:101150000A68520500F1A0800A68120614D40A68D1
:10116000520500F199800A6812060DD40A685205EA
:1011700000F192800A68120606D40A68520500F14E
:101180008B800A681206E3D5636A194611F8012BB1
:1011900002616162618D01396185278D0146A7F188
:1011A000010CA4F828C051F8142F52070DD55FEA9E
:1011B0000C420AD05A78A7F1020C02619A1C6262B2
:1011C000628D013A6285A4F828C00A6852072FD4BC
:1011D000B8F1000F14D0B9F1000F7BD008684005BA
:1011E00000F18080FFF714F9401B484577D820684C
:1011F000014651F8142F5207F0D5B4F828C017E073
:101200000A6852056ED40A68520711D40A6852055A
:1012100068D40A6852070BD40A68520562D40A6877
:10122000520705D40A6852055CD40A685207E7D50C
:101230005FEA0C417FF46DAF016841F40071016019
:10124000202084F83D0084F83E6084F83C603046FD
:1012500001B0BDE8F08300BFFFF7DAF8202002E01C
:10126000FFF7D6F8202000212022216384F83D20BA
:1012700084F83E10226C01261043206484F83C1050
:10128000304601B0BDE8F0830868400504D4FFF79C
:10129000BFF8202004E000BF6FF4806008600420E5
:1012A00000212022216384F83D2084F83E10226C26
:1012B0001043206484F83C10206C042825D1206859
:1012C0000126016841F400710160304601B0BDE8BB
:1012D000F08300BF0868400504D4FFF799F8202088
:1012E00004E000BF6FF48060086004200021202229
:1012F000216384F83D2084F83E10226C1043206462
:1013000084F83C10206C0428D9D00126304601B066
:10131000BDE8F08310B586B0006845F60001C4F260
:10132000000188424FF00001CDE90411CDE902111E
:1013300034D045F20041C4F20001884252D141F25A
:101340001804C4F20204206802A940F008002060DA
:10135000206800F00800019001984FF4407002905E
:10136000122003900320059040F60040C4F20100D3
:10137000FEF740FF0420C4F20100016841F0E06183
:1013800041F002010160606840F400106060606834
:1013900000F400100190019806B010BD41F218044D
:1013A000C4F20204206802A940F00800206020680E
:1013B00000F00800019001984FF440600290122064
:1013C00003900320059040F60040C4F20100FEF7B0
:1013D00011FF606840F480006060606800F4800085
:1013E0000190019806B010BD40F2000040F2145187
:1013F000C2F20000C2F2000100780A6810440860DE
:101400007047000080B542F20000C4F2020001689B
:1014100041F010010160032000F07AF8002000F094
:1014200005F800F027F8002080BD000070B540F2FC
:101430000006C2F2000640F218013278C2F2000142
:101440004FF47A730968B3FBF2F20446B1FBF2F190
:10145000084600F03BFB0F2C4FF0010508D838B9C7
:101460004FF0FF3021460022002500F025F874607F
:10147000284670BD82B041F21800C4F20200016833
:10148000022241F001010160016801F001010191B6
:101490000199416841F080514160406800F08050FE
:1014A000009000980420C4F20100016862F31A6100
:1014B000016002B07047000010B54EF60C5CCEF231
:1014C000000CDCF80030C3F3022E8EF00704042C6D
:1014D00028BF0424BEF103034FF0FF3E0EFA04F4CC
:1014E00038BF0023A14399400EFA03F39A431143F6
:1014F00000F00F0200F160430901043A03F5644370
:101500006244002848BF02F10C03197010BD0000AE
:101510004EF60C51CEF200010A684FF6FF031A4056
:1015200060F30A2242F0806040F0FD70086070476E
:101530002DE9F04381B0002800F0858042F20008D8
:10154000C4F202080446D8F800000D4600F0070077
:1015500088420CD2D8F8000020F007002843C8F8D1
:101560000000D8F8000000F00700A8426BD1206806
:1015700041F204098107C4F2020917D5410705D5D4
:10158000D9F8001041F4E061C9F80010010705D551
:10159000D9F8001041F46051C9F80010D9F80010D2
:1015A000A26821F0F0011143C9F80010C00741D131
:1015B000D8F8000000F00700A8420CD9D8F80000C5
:1015C00020F007002843C8F80000D8F8000000F019
:1015D0000700A84237D12068410707D5D9F8001085
:1015E000E26821F4E0611143C9F80010000708D552
:1015F000D9F80000216920F4605040EAC100C9F820
:101600000000D9F8002002F00C00082841F2002068
:10161000C0F27A0050D143F6F813C2F38341C0F60A
:101620000003595CD2033BD440F60010C0F23D00E9
:10163000484341E0606802280AD001282AD159F8BD
:10164000041C890308D4012001B0BDE8F08300BF69
:1016500059F8041C8901F6D5D9F8001021F00301CE
:101660000843C9F80000FEF7D3FE064641F288376A
:10167000D9F80000616800F00C00B0EB810F97D042
:10168000FEF7C6FE801BB842F2D9032001B0BDE8C8
:10169000F08300BF59F8041C8907D4D5DCE700BFEC
:1016A000D9F8002042F21653C2F34042C0F60003BC
:1016B0009A5C4843B0FBF2F0D9F8001042F218529D
:1016C000C1F30311C0F60002515C40F2180220FA87
:1016D00001F140F20400C2F200000068C2F2000210
:1016E0001160FFF7A3FE002001B0BDE8F083000009
:1016F00040F2180041F20401C2F20000C4F20201FB
:101700000068096842F22852C1F30221C0F60002C3
:10171000515CC840704700002DE9F04182B00028BC
:1017200068D00446007841F20006C007C4F2020601
:1017300025D0706800F00C0004281BD0706800F001
:101740000C00082802D17068C00313D46068002818
:1017500000F06881B0F5A02F00F07C81B0F5803FEB
:1017600000F07C81306820F480303060306820F4F4
:10177000802076E13068800301D56068D0B320789E
:10178000800718D5706810F00C0F07D0706800F053
:101790000C0008286ED17068C0036BD430688007D5
:1017A00002D52069012825D13068616920F0F80050
:1017B00040EAC1003060207800071FD4207840073D
:1017C00032D4E56995B1706800F00C00082840F04B
:1017D0008F80012D0ED07068216A00F480328A4219
:1017E00008D1616A00F47010884203D1002002B071
:1017F000BDE8F081012002B0BDE8F081A0690028B9
:1018000062D00020C4F242200121C0F88014FEF70B
:10181000FFFD0546706A800700F18C80FEF7F8FD39
:10182000401B0228F6D92AE1F06910F0805808D14F
:10183000F06940F08050F061F06900F08050009055
:10184000009847F20007C4F200073868C00529D4A1
:10185000386840F480703860FEF7DAFD054600BF56
:101860003868C0051ED4FEF7D3FD401B6428F7D9A5
:1018700005E100BF2069002840F20000C4F24220C8
:1018800000F0828001210160FEF7C2FD054600BF25
:10189000306880073FF588AFFEF7BAFD401B02288D
:1018A000F6D9ECE0E068002800F08080052800F020
:1018B0009780012800F09880306A20F001003062A3
:1018C000306A20F0040092E00020C4F2422000219F
:1018D000C0F88014FEF79CFD054600BF706A8007C3
:1018E0007FF56CAFFEF794FD401B0228F6D9C6E0E9
:1018F0000027C4F2422700203866FEF789FD022D3A
:1019000005460BD13068800140F1BE80FEF780FDB6
:10191000401B02284FF00300F4D968E730688001CB
:101920007FF564AFFEF774FD401B02284FF0030003
:10193000F4D95CE740F21800C2F20000006844F6F7
:10194000D351C1F26201A0FB0101480A019000BF1E
:1019500000BF0198411E002801913FF42FAF00BF46
:101960000198411E002801913FF428AF00BF019863
:10197000411E002801913FF421AF00BF0198411E94
:1019800000280191E4D119E700210160FEF740FD34
:10199000054600BF306880077FF50DAFFEF738FDC4
:1019A000401B02284FF00300F4D920E7306A20F0F2
:1019B00001003062306A20F004003062FEF728FD3A
:1019C000054641F2883700BF306A800720D5FEF710
:1019D0001FFD401BB8424FF00300F5D907E700BFD9
:1019E000306A40F004003062306A40F0010030623A
:1019F000FEF70EFD054641F2883700BF306A8007CA
:101A000006D4FEF705FD401BB842F7D937E000BF0A
:101A1000B8F1000F7FF4D5AEF06920F08050F0618E
:101A2000CFE600BF306820F480303060306820F4AA
:101A300080203060FEF7ECFC054600BF3068800374
:101A40007FF59DAEFEF7E4FC401B64284FF00300D9
:101A5000F4D9CCE6306840F480203060306840F43F
:101A600080303060FEF7D4FC054600BF306880034C
:101A70003FF585AEFEF7CCFC401B6428F6D9032069
:101A800002B0BDE8F08100BF206AB0F5803F05D10B
:101A90007168A26821F40031114371607168626A53
:101AA00021F4741111430843706001203866FEF779
:101AB000AFFC0446306880013FF598AEFEF7A8FC05
:101AC000001B02284FF00300F4D990E6411E0020CD
:101AD000B0EB116F1CBF012070474EF21002CEF226
:101AE000000251604EF62351CEF20001F0230B703C
:101AF0000721906011607047FEE70000FEE70000DC
:101B0000704700007047000040F22002C2F200025D
:101B100050809180704700002DE9F04182B040F282
:101B2000C040C2F200007821012244F62063FEF793
:101B300031FD4FF0000418B1204602B0BDE8F0813D
:101B400040F2C0454FF42E40C2F20005ADF8060049
:101B50000A260DF106022846782102230096FFF797
:101B60009DF94FF400580DF1060228467821022312
:101B7000ADF806800096FFF791F94FF480570DF10C
:101B80000602284678210223ADF806700096FFF77A
:101B900085F94FF43040ADF806000DF106022846F5
:101BA000782102230096FFF779F94FF44840ADF809
:101BB00006000DF106022846782102230096FFF761
:101BC0006DF90DF10602284678210223ADF8064092
:101BD0000096FFF763F90DF10602284678210223EB
:101BE000ADF806700096FFF759F94FF48040ADF854
:101BF00006000DF106022846782102230096FFF721
:101C00004DF94FF40140ADF806000DF106022846EB
:101C1000782102230096FFF741F94FF47F40ADF899
:101C200006000DF106022846782102230096FFF7F0
:101C300035F94FF42140ADF806000DF106022846B3
:101C4000782102230096FFF729F94FF42640ADF8DA
:101C500006000DF106022846782102230096FFF7C0
:101C60001DF94FF42840ADF806000DF10602284694
:101C7000782102230096FFF711F94FF47C50ADF85C
:101C800006000DF106022846782102230096FFF790
:101C900005F94FF42440ADF806000DF10602284680
:101CA000782102230096FFF7F9F84FF45340ADF87E
:101CB00006000DF106022846782102230096FFF760
:101CC000EDF80DF10602284678210223ADF8064012
:101CD0000096FFF7E3F84FF45540ADF806000DF11C
:101CE00006022846782102230096FFF7D7F84FF422
:101CF0007040ADF806000DF1060228467821022357
:101D00000096FFF7CBF84FF45940ADF806000DF1FF
:101D100006022846782102230096FFF7BFF84FF409
:101D20000850ADF806000DF106022846782102237E
:101D30000096FFF7B3F84FF45A40ADF806000DF1E6
:101D400006022846782102230096FFF7A7F84FF4F1
:101D50009050ADF806000DF10602284678210223C6
:101D60000096FFF79BF84FF45B40ADF806000DF1CD
:101D700006022846782102230096FFF78FF80DF11E
:101D80000602284678210223ADF806800096FFF768
:101D900085F84FF40D40ADF806000DF10602284617
:101DA000782102230096FFF779F84FF4A050ADF8A0
:101DB00006000DF106022846782102230096FFF75F
:101DC0006DF84FF42F40ADF806000DF106022846DD
:101DD000782102230096FFF761F84FF43850ADF8F0
:101DE00006000DF106022846782102230096FFF72F
:101DF00055F840F26C00C2F200004FF48061FEF72B
:101E0000AAF900F0A5F840F22000C2F20000C0F8E4
:101E100002400124204602B0BDE8F0812DE9F04FD8
:101E200087B040F22003C2F20003B3F802A00F789B
:101E300007EB0A067F2E05D89E884D7803962E4420
:101E40003F2E03D9002007B0BDE8F08F002D009091
:101E50005AD0203801901878B2FA82F67309013A04
:101E6000B2FA82F20028069308BF530940F26C09C7
:101E700004934FF000063B46C2F2000918BF012050
:101E8000059003E000230136AE423DD2002BF9D08D
:101E900003988419A2B23F2AF5D801984A6805FB35
:101EA0000060029632F810E004F007000122824040
:101EB0004FF68070C0F20F0000EA041CD0430024EB
:101EC00004E000BF0F780134BC4219D20AEB0407CA
:101ED000BFB27F2FF6D867440EFA04F319F807B0A3
:101EE0001B04049B0BEA0008DDE9055658BF86EA8F
:101EF0000503002B18BF4BEA020809F80780E1E749
:101F00004D78029E3B46BEE7F8B240F220015044B5
:101F1000C2F2000148805DF81C0BBDE8F08F0000A4
:101F200070B503787BB114460D46461CD8B22946DD
:101F30002246FFF773FF16F8011C884206D116F8F7
:101F4000013B002BF2D1002070BD00BF084670BDE0
:101F50002DE9F04FC1B00DF1040B40F2C0460BF17A
:101F600001094FF000086FF07F050A24C2F2000655
:101F70004FF0000A40F26C008035C2F200002F18CA
:101F8000AAF150008DF80500304678215A46022308
:101F90008DF804800094FEF781FF304678215A4680
:101FA0000223ADF804800094FEF778FF4FF48050D0
:101FB000ADF80400304678215A4602230094FEF71B
:101FC0006DFF40208DF80400484639468022FEF718
:101FD000A9F8304678215A4681230094FEF75EFF27
:101FE000B5F5607F0AF1010AC4D141B0BDE8F08FB8
:101FF00070470000FFF7F8B970470000FEE70000E7
:1020000090B0FFF7FFF900270120CDE90B77CDE96C
:10201000097706900A904FF4E0104FF480310224C3
:102020000F9006A8CDE90717CDE90D41FFF774FB26
:102030000F2001A991C14FF48060CDE9040701A8E8
:102040000221FFF775FA41F21800C4F2020001689C
:1020500040F26C4441F020010160016845F2004506
:1020600001F02001069106990168C2F2000441F0D6
:10207000080101600168C4F2000501F00801069141
:10208000069901684FF4804641F004010160006840
:1020900000F00400069006984CF25030C4E900505D
:1020A0002046C4E90277C4E90467C4E906772762D9
:1020B000FEF7B4F940F2C04005F58061C2F20000BD
:1020C00041F68022C0F2060280E88600C0E903766D
:1020D000C0E90577C0E90777FEF7A0F940F6B83008
:1020E000FEF774F840F22806C2F2000635460A20D0
:1020F000C6E90577C6E9077745F8107F7074512067
:1021000030754FF47A782046C2212A460523F774A9
:10211000CDF80080FEF7C2FE307040F6C410FEF726
:1021200055F840F2022028802046C2212A46022388
:102130007784C6F81E70C6F81A70C6F81670C6F80E
:102140001270CDF80080FEF7A9FE30702046C22143
:102150002A4603232F60C6E90577C6E90777CDF83D
:1021600000800325FEF72AFB717C307001296FD0B7
:1021700040F2DC50FEF72AF8324640F26C4042F85A
:10218000107FC2F20000C2210323C6E90577C6E929
:102190000777CDF80080FEF711FB717C30700129C4
:1021A00056D040F2DC50FEF711F80024324640F2DF
:1021B0006C4042F8104F4FF47A79C2F20000C2210D
:1021C0000323C6E90544C6E90744CDF80090FEF7AD
:1021D000F5FA717C307001293AD040F2DC50FDF7FD
:1021E000F5FF324640F26C4042F8104FC2F2000058
:1021F000C2210323C6E90544C6E90744CDF800908F
:10220000FEF7DCFA717C3070012921D040F2DC50FD
:10221000FDF7DCFF00203246C6E90500C6E90700ED
:1022200042F8100F40F26C404FF47A74C2F2000092
:10223000C22103230094FEF7C1FA717C307001299A
:1022400006D040F2DC50FDF7C1FF717C01292BD193
:10225000344624F8105F40F26C45C2F2000528466F
:10226000C221224602237784C6F81E70C6F81A706F
:10227000C6F81670C6F81270CDF80080FEF70EFE94
:1022800030704FF4C870FDF7A1FF2846C2212246E6
:102290001223C6E90577C6E907772760CDF80080E5
:1022A000FEF78CFA717C30700804317CF27C40EAD5
:1022B0000160F17D337DB77D40EA02200904727E22
:1022C000184441EA0761B37E41EA02211944B16032
:1022D000717F327F090441EA0261F27F96F8203073
:1022E00041EA02211944F16000217060C6F815101E
:1022F000C6F81910C6F81D103162C6F81110FDF7A6
:1023000035FF3074FFF708FC05200321FFF7FCFBC5
:1023100040F2080170A0C2F200010122FFF700FEA6
:102320002E200321FFF7F0FB7068FDF71FFF43F637
:102330000A25C0F60005E8B100214CF6CD4200BFE9
:1023400087B207FB02F3DB0C03EB8304A0EB440032
:1023500080B2285C74180A2FA1F1010784F84200AA
:1023600004D311F11D0039461846E9D1F019433064
:1023700004E000BF43F60820C0F6000040F2080465
:10238000C2F2000421460122FFF7CAFD5A200321B0
:10239000FFF7BAFB52A021460122FFF7C1FD05203D
:1023A0001621FFF7B1FB4FA021460122FFF7B8FD30
:1023B0001E201621FFF7A8FBB068FDF7D7FEE8B195
:1023C00000214CF6CD4200BF87B207FB02F3DB0CC5
:1023D00003EB8304A0EB440080B2285C74180A2F3E
:1023E000A1F1010784F8420004D311F11D00394620
:1023F0001846E9D1F019433004E000BF43F6082045
:10240000C0F6000040F20804C2F200042146012296
:10241000FFF786FD32201221FFF776FB40F2100114
:1024200031A0C2F200010122FFF77AFD3C20162103
:10243000FFF76AFB2DA021460122FFF771FD052061
:102440002A21FFF761FB2AA021460122FFF768FD40
:102450001E202A21FFF758FBF068FDF787FEE8B140
:1024600000214CF6CD4200BF87B207FB02F3DB0C24
:1024700003EB8304A0EB440080B2285C74180A2F9D
:10248000A1F1010784F8420004D311F11D0039467F
:102490001846E9D1F019433004E000BF43F60820A4
:1024A000C0F6000040F20804C2F2000421460122F6
:1024B000FFF736FD32202A21FFF726FB0DA021462B
:1024C0000122FFF72DFDFFF743FD4FF4FA60FDF702
:1024D0007DFE00BFFEE700BF434F323A0000000020
:1024E00070706D00543A00006F000000430000005F
:1024F000483A00002500000002E008C8121F08C189
:10250000002AFAD170477047002001E001C1121F74
:10251000002AFBD17047010200000000000000000B
:102520000102030406070809000000000102030479
:10253000000000000000000000000000000000009B
:10254000000000000000000000000000000000008B
:10255000000000000000000C000C000C000C000C3F
:10256000000C000C000C000C000C000C0000000C17
:10257000000C0000000000000000001B001B001BFE
:10258000001B001B00000000000000000000000015
:1025900000000000000000000000000000008019A2
:1025A000801980198019C07FC07F80190033C07FD7
:1025B000C07F003300330033003300000000000010
:1025C0000000001E003F807580650074003C001E06
:1025D00000078005806580658075003F001E00044F
:1025E000000400000000007000D840D8C0D880D996
:1025F00000730006000C801BC036C066C046C006D3
:1026000080030000000000000000001E003F0033B7
:1026100000330033001E000CC03CC0668063806144
:102620008063C03E801C0000000000000000000C21
:10263000000C000C000C000C00000000000000006A
:10264000000000000000000000000000000000008A
:10265000800000010003000600060004000C000CCE
:10266000000C000C000C000C000400060006000327
:1026700000018000002000100018000C000C000475
:102680000006000600060006000600060004000C16
:10269000000C0018001000200000000C002D003F6E
:1026A000001E0033000000000000000000000000D9
:1026B000000000000000000000000000000000001A
:1026C0000000000C000C000C000CC0FFC0FF000C50
:1026D000000C000C000C00000000000000000000D6
:1026E00000000000000000000000000000000000EA
:1026F00000000000000000000000000C000C0004BE
:1027000000040008000000000000000000000000BD
:10271000000000000000001E001E0000000000007D
:1027200000000000000000000000000000000000A9
:102730000000000000000000000000000000000099
:102740000000000C000C000000000000000000036E
:10275000000300030006000600060006000C000C43
:10276000000C000C00180018001800000000000009
:102770000000001E003F0033806180618061806D39
:10278000806D8061806180610033003F001E000029
:102790000000000000000006000E001E00360026AB
:1027A00000060006000600060006000600060006F9
:1027B00000060000000000000000001E003F8073C3
:1027C00080618061800100030006000C0018003069
:1027D0000060807F807F0000000000000000001C7F
:1027E000003E006300630003000E000E0003800142
:1027F000800180618073003F001E00000000000027
:1028000000000006000E000E001E001E001600361E
:1028100000360066807F807F00060006000600000C
:10282000000000000000007F007F0060006000608A
:10283000006E007F80638001800180618073003FB3
:10284000001E0000000000000000001E003F80335A
:1028500080610060006E007F8073806180618061B4
:102860008033003F001E0000000000000000807F59
:10287000807F80010003000300060006000C000CAE
:10288000000C0008001800180018000000000000EC
:102890000000001E003F8063806180610021001EF7
:1028A000003F8061806180618061003F001E000008
:1028B000000000000000001E003F00738061806186
:1028C00080618073803F801D800180610073003FC4
:1028D000001E0000000000000000000000000000DA
:1028E0000000000C000C00000000000000000000D0
:1028F0000000000C000C00000000000000000000C0
:102900000000000000000000000C000C00000000AF
:10291000000000000000000C000C0004000400088F
:10292000000000000000000080008003000E00385E
:1029300000600038000E80038000000000000000EE
:102940000000000000000000000000000000807F88
:10295000807F00000000807F807F0000000000007A
:102960000000000000000000000000000000000067
:1029700000400070001C000780010007001C007070
:102980000040000000000000000000000000001FE8
:10299000803FC071C060C000C00180030007000E0E
:1029A000000C000C0000000C000C000000000000F7
:1029B0000000001E003F803180718063806F806D59
:1029C000806D806F806700600032003E001C000058
:1029D000000000000000000E000E001B001B001B8A
:1029E000001B80318031803F803F8031C060C060FB
:1029F000C0600000000000000000007C007E00635A
:102A0000006300630063007E007E0063806180617C
:102A10008063007F007E0000000000000000001EB8
:102A2000003F8031806100600060006000600060F5
:102A3000006080618031003F001E00000000000047
:102A40000000007C007F00638063806180618061A2
:102A500080618061806100630063007E007C000013
:102A6000000000000000807F807F00600060006048
:102A70000060007F007F0060006000600060807F79
:102A8000807F0000000000000000807F807F0060E9
:102A9000006000600060007F007F006000600060F8
:102AA0000060006000600000000000000000001EE8
:102AB000003F80318061006000600060806380635F
:102AC000806180618031803F001E000000000000B6
:102AD0000000806180618061806180618061807FB1
:102AE000807F8061806180618061806180610000A1
:102AF000000000000000003F003F000C000C000C34
:102B0000000C000C000C000C000C000C000C003F32
:102B1000003F0000000000000000800180018001F3
:102B200080018001800180018001800180618061DD
:102B30008073003F001E0000000000000000C06025
:102B40008061006300660066006C0078007C0066AF
:102B50000066006380618061C060000000000000CA
:102B600000000060006000600060006000600060C5
:102B700000600060006000600060807F807F000077
:102B8000000000000000C071C071C07BC07AC06A44
:102B9000C06AC06EC064C060C060C060C060C06019
:102BA000C06000000000000000008071807180792A
:102BB00080798079806D806D806D806580678067A9
:102BC0008067806380630000000000000000001E3A
:102BD000003F00338061806180618061806180613D
:102BE000806180610033003F001E00000000000093
:102BF0000000007E007F806380618061806180636F
:102C0000007F007E006000600060006000600000E7
:102C1000000000000000001E003F00338061806162
:102C20008061806180618061806580670033803F62
:102C3000401E0000000000000000007E007F806356
:102C4000806180618063007F007E006600630063B6
:102C500080618061C0600000000000000000000E84
:102C6000001F8031803100300038001E00078003D3
:102C7000806180618031003F001E00000000000084
:102C80000000C0FFC0FF000C000C000C000C000C8A
:102C9000000C000C000C000C000C000C000C0000E0
:102CA00000000000000080618061806180618061BF
:102CB0008061806180618061806180618073003F9C
:102CC000001E0000000000000000C060C060C06086
:102CD000803180318031001B001B001B001B000E67
:102CE000000E000E00040000000000000000C0C044
:102CF000C0C0C0C0C0C0C0C0C0CC804C804C805ED2
:102D0000805280528073806180610000000000006A
:102D10000000C0C0806080610033003B001E000CDA
:102D2000000C001E001F003B80718061C0C00000CD
:102D3000000000000000C0C08061806100330033EB
:102D4000001E001E000C000C000C000C000C000CFF
:102D5000000C0000000000000000803F803F800168
:102D6000000300030006000C000C001800180030DF
:102D70000060807F807F000000000000000F000FD7
:102D8000000C000C000C000C000C000C000C000CE3
:102D9000000C000C000C000C000C000C000F000FCD
:102DA0000000001800180018000C000C000C000CAB
:102DB00000060006000600060003000300030000F2
:102DC00000000000001E001E0006000600060006AF
:102DD00000060006000600060006000600060006C3
:102DE00000060006001E001E0000000C000C001E65
:102DF0000012003300338061806100000000000099
:102E000000000000000000000000000000000000C2
:102E100000000000000000000000000000000000B2
:102E2000000000000000000000000000E0FF0000C3
:102E3000000000380018000C000000000000000036
:102E40000000000000000000000000000000000082
:102E50000000000000000000000000000000001F53
:102E6000803F80618001801F803F80618063807F20
:102E7000C03800000000000000000060006000603A
:102E80000060006E007F807380618061806180617E
:102E90008073007F006E0000000000000000000052
:102EA000000000000000001E003F80738061006091
:102EB000006080618073003F001E00000000000081
:102EC00000008001800180018001801D803F8073AF
:102ED00080618061806180618073803F801D00001F
:102EE0000000000000000000000000000000001EC4
:102EF000003F00738061807F807F00608071003FB1
:102F0000001E0000000000000000C007C00F000C01
:102F1000000C807F807F000C000C000C000C000C6B
:102F2000000C000C000C000000000000000000007D
:102F300000000000801D803F80738061806180619F
:102F400080618073803F801D80018063007F003E30
:102F500000000060006000600060006F807F807192
:102F6000806180618061806180618061806100003A
:102F70000000000000000006000600000000003E07
:102F8000003E0006000600060006000600060006D9
:102F9000000600000000000000060006000000001F
:102FA000003E003E00060006000600060006000681
:102FB0000006000600060046007E003C000000609F
:102FC000006000600060806100630066006C007C4F
:102FD0000076006300638061C060000000000000B4
:102FE0000000003E003E0006000600060006000647
:102FF00000060006000600060006000600060000A7
:10300000000000000000000000000000000080DD63
:10301000C0FFC0CEC0CCC0CCC0CCC0CCC0CCC0CC1B
:10302000C0CC000000000000000000000000000014
:103030000000006F807F80718061806180618061AD
:1030400080618061806100000000000000000000DD
:10305000000000000000001E003F8073806180615E
:10306000806180618073003F001E0000000000004E
:103070000000000000000000006E007F807380618F
:103080008061806180618073007F006E00600060FD
:10309000006000600000000000000000801D803F14
:1030A000807380618061806180618073803F801D5A
:1030B000800180018001800100000000000000000C
:1030C00000000067803F00390030003000300030E1
:1030D0000030003000300000000000000000000060
:1030E000000000000000001E803F80610060007F43
:1030F000803F80018061007F001E00000000000012
:1031000000000000000800180018007F007F001871
:1031100000180018001800180018801F800F000009
:1031200000000000000000000000000000008061BE
:103130008061806180618061806180618063807F67
:10314000803D0000000000000000000000000000C2
:103150000000C060803180318031001B001B001BEB
:10316000000E000E0006000000000000000000003D
:1031700000000000000080DD80DD80DD005500558E
:1031800000550077007700220022000000000000B8
:1031900000000000000000000000806100330033E8
:1031A000001E000C000C001E003300338061000084
:1031B000000000000000000000000000806180614D
:1031C000803100330033001B001B001B000E000E7B
:1031D000000E001C007C00700000000000000000D9
:1031E0000000C07FC07F800100030006000C0018B3
:1031F0000030C07FC07F0000000000008003800717
:1032000000060006000600060006000E001C001C5A
:10321000000E000600060006000600068007800378
:10322000000600060006000600060006000600066E
:10323000000600060006000600060006000600065E
:10324000000600060038003C000C000C000C000CCE
:10325000000C000E00070007000E000C000C000C14
:10326000000C000C003C00380000000000000000D2
:103270000000000000008038807F00470000000050
:10328000000000000000000000000000000000003E
:10329000000000000000000000000000000000002E
:1032A00000100010001000100010001000000010AE
:1032B0000000000000280028002800000000000096
:1032C000000000000000000000240024007C002416
:1032D0000048007C0048004800000000003800540E
:1032E0000050003800140054005400380010000052
:1032F000002000540058003000280054001400083A
:1033000000000000001000280028001000340048D1
:103310000048003400000000001000100010000001
:103320000000000000000000000000000008001085
:1033300000200020002000200020002000100008B5
:10334000002000100008000800080008000800081D
:1033500000100020001000380010002800000000BD
:10336000000000000000000000000000001000103D
:10337000007C0010001000000000000000000000B1
:10338000000000000000000000000010001000100D
:1033900000000000000000000000003800000000F5
:1033A000000000000000000000000000000000001D
:1033B00000000010000000000008000800100010CD
:1033C0000010001000200020000000000038004421
:1033D0000044005400440044004400380000000051
:1033E00000100030005000100010001000100010FD
:1033F00000000000003800440044000400080010F1
:103400000020007C00000000003800440004001888
:103410000004000400440038000000000008001808
:10342000002800280048007C000800080000000078
:10343000007C004000400078000400040044003894
:1034400000000000003800440040007800440044C0
:103450000044003800000000007C00040008001058
:103460000010002000200020000000000038004470
:1034700000440038004400440044003800000000CC
:103480000038004400440044003C0004004400387C
:10349000000000000000000000100000000000001C
:1034A00000000010000000000000000000000010FC
:1034B00000000000000000100010001000000000DC
:1034C000000C003000400030000C00000000000044
:1034D000000000000000007C0000007C00000000F4
:1034E0000000000000000000006000180004001848
:1034F00000600000000000000038004400040008E4
:10350000001000100000001000000000003800440F
:10351000004C0054005C00400040003800000000F7
:1035200000100028002800280028007C00440044E7
:10353000000000000078004400440078004400448B
:1035400000440078000000000038004400400040C3
:1035500000400040004400380000000000700048B7
:103560000044004400440044004800700000000093
:10357000007C00400040007C004000400040007C97
:1035800000000000007C0040004000780040004047
:1035900000400040000000000038004400400040AF
:1035A000005C004400440038000000000044004477
:1035B0000044007C0044004400440044000000003B
:1035C000003800100010001000100010001000382B
:1035D00000000000000400040004000400040004D3
:1035E0000044003800000000004400480050006023
:1035F0000050004800480044000000000040004027
:1036000000400040004000400040007C00000000FE
:103610000044006C006C005400440044004400442A
:103620000000000000440064006400540054004C9A
:10363000004C0044000000000038004400440044F6
:1036400000440044004400380000000000780044BA
:1036500000440044007800400040004000000000AA
:103660000038004400440044004400440054003842
:103670000004000000780044004400440078004842
:1036800000480044000000000038004400400030C2
:10369000000800040044003800000000007C001016
:1036A00000100010001000100010001000000000BA
:1036B00000440044004400440044004400440038F6
:1036C00000000000004400440044002800280028B6
:1036D000001000100000000000440044005400549A
:1036E0000054006C0028002800000000004400285E
:1036F00000280010001000280028004400000000EE
:1037000000440044002800280010001000100010A1
:1037100000000000007C00040008001000100020E1
:103720000040007C00000000001800100010001095
:1037300000100010001000100010001800200020E1
:103740000010001000100010000800080000000029
:1037500000300010001000100010001000100010C9
:103760000010003000100028002800440000000075
:103770000000000000000000000000000000000049
:103780000000000000000000000000FE002000100B
:103790000000000000000000000000000000000029
:1037A0000000000000380044003C0044004C00349D
:1037B0000000000000400040005800640044004445
:1037C00000640058000000000000000000380044C1
:1037D00000400040004400380000000000040004E5
:1037E0000034004C00440044004C00340000000051
:1037F0000000000000380044007C00400044003815
:1038000000000000000C0010007C001000100010F0
:103810000010001000000000000000000034004C08
:1038200000440044004C0034000400780040004094
:1038300000580064004400440044004400000000BC
:1038400000100000007000100010001000100010A8
:1038500000000000001000000070001000100010B8
:1038600000100010001000E0004000400048005030
:10387000006000500048004400000000007000108C
:1038800000100010001000100010001000000000D8
:10389000000000000078005400540054005400540C
:1038A00000000000000000000058006400440044D4
:1038B0000044004400000000000000000038004404
:1038C00000440044004400380000000000000000F4
:1038D0000058006400440044006400580040004068
:1038E000000000000034004C00440044004C003450
:1038F0000004000400000000005800640040004084
:1039000000400040000000000000000000380044BB
:1039100000300008004400380000000000200020B3
:103920000078002000200020002000180000000087
:10393000000000000044004400440044004C0034F7
:10394000000000000000000000440044002800289F
:103950000028001000000000000000000054005487
:103960000054006C00280028000000000000000047
:10397000004400280010001000280044000000004F
:10398000000000000044004400280028001000103F
:103990000010006000000000007C00080010002003
:1039A0000040007C00000000001800100010001013
:1039B000002000200010001000100018001000105F
:1039C0000010001000100010001000100010001077
:1039D0000030001000100010000800080010001057
:1039E000001000300000000000000074004C0000D7
:1039F000000000000000000002030405060708099B
:103A00000A0B0C0D0E0F10103000303132333435EC
:103A1000363738396162636465660000403A0008F1
:103A20000000002020000000F8240008603A000890
:103A300020000020F8080000082500080000000011
:103A400001000000100000000B12000030250008EB
:103A5000070A00008C3200080024F4000000000077
:04000005080000ED02
:00000001FF
